:020000040800F2
:10000000B8090020290200080F180008DD160008B2
:100010000D1800081F0400087B1D000800000000E8
:1000200000000000000000000000000005190008AA
:10003000D10400080000000011180008071900088A
:10004000430200084302000843020008430200087C
:10005000430200084302000843020008430200086C
:10006000430200084302000843020008430200085C
:10007000430200084302000843020008430200084C
:10008000430200084302000843020008430200083C
:10009000430200084302000843020008430200082C
:1000A000430200084302000843020008430200081C
:1000B000430200084302000843020008430200080C
:1000C00043020008430200084302000843020008FC
:1000D00043020008430200084302000843020008EC
:1000E00043020008430200084302000843020008DC
:1000F00043020008430200084302000843020008CC
:1001000043020008430200084302000843020008BB
:1001100043020008430200084302000843020008AB
:1001200043020008430200082104000843020008BB
:10013000430200084302000843020008430200088B
:10014000430200084302000843020008430200087B
:10015000430200084302000843020008430200086B
:10016000430200084302000843020008430200085B
:100170004302000843020008430200080000000098
:10018000430200084302000800F002F800F03CF8C7
:100190000AA090E8000C82448344AAF10107DA45E2
:1001A00001D100F031F8AFF2090EBAE80F0013F0F8
:1001B000010F18BFFB1A43F001031847301C000061
:1001C000501C0000103A24BF78C878C1FAD85207F2
:1001D00024BF30C830C144BF04680C6070470000C1
:1001E0000023002400250026103A28BF78C1FBD840
:1001F000520728BF30C148BF0B6070471FB501F0E0
:10020000DBFD1FBD10B510BD00F0CFF81146FFF7A4
:10021000F5FF01F0C3FD00F0EDF803B4FFF7F2FFC6
:1002200003BC00F0F5F80000094880470948004782
:10023000FEE7FEE7FEE7FEE7FEE7FEE7FEE7FEE796
:10024000FEE7FEE704480549054A064B70470000F3
:10025000A119000889010008B8030020B80900208E
:10026000B8050020B805002053EA020C00F06980B0
:100270002DE9F04B4FF00006002B1FBFB3FA83F5BA
:1002800003FA05F424FA05F65E4012BF1643B2FAEB
:1002900082F502FA05F4C5F120051EBF22FA05FC1D
:1002A00044EA0C04203556EA044C4FEA144418BFC3
:1002B000641C4FF000084FF00009904271EB030CF2
:1002C00039D3002919BFB1FA81F701FA07F6B0FA5C
:1002D00080F700FA07F6C7F120071EBF20FA07FCD7
:1002E00046EA0C062037B6FBF4FCA7EB0507103FE7
:1002F00007F01F0BCBF120060CFA0BFB2CFA06F6CD
:1003000044BFB3460026202FA4BF5E464FF0000B2B
:100310005BEA060C08BF4FF0010B19EB0B09ABFBB6
:10032000027C48EB0608C01B06FB02CC0BFB03CC8F
:1003300071EB0C01C1E70B46024641464846BDE859
:10034000F08B13B54FF000004FF00001AFF30080C9
:10035000BDE81C4070474FF0000200B513469446BC
:100360009646203922BFA0E80C50A0E80C50B1F10D
:100370002001BFF4F7AF090728BFA0E80C5048BF21
:100380000CC05DF804EB890028BF40F8042B08BFBF
:10039000704748BF20F8022B11F0804F18BF00F8BB
:1003A000012B7047704770477047754600F02CF876
:1003B000AE4605006946534620F00700854618B052
:1003C00020B5FFF73FFFBDE820404FF000064FF09B
:1003D00000074FF000084FF0000B21F00701AC467A
:1003E000ACE8C009ACE8C009ACE8C009ACE8C00999
:1003F0008D46704710B50446AFF300802046BDE837
:100400001040FFF70ABF0000004870475803002063
:1004100001491820ABBEFEE7260002007047FEE748
:10042000014800F06BB80000580000200168182354
:10043000CAB2103AB2FBF3F2054B6FF30901032A7B
:100440009B5CC36500D9091D8165084670470000A3
:10045000C21D000810B5014600208B698A6A4FF062
:10046000C07453B1B3F5005F15D072B1012A0CD03E
:10047000022A0AD0032A09D104E01AB1012A06D0BF
:10048000022A03D1C96AC90100D5012010BDC96A79
:10049000A142FAD010BD002AF7D0012AF2D0022AD8
:1004A000F3D0032AF3D010BD30B50468256825F4D5
:1004B00080252560046863608368402B036803D04F
:1004C00099600068C26030BD9A600068C16030BD4C
:1004D000704772B6FEE790F83510022903D08021EC
:1004E000416501207047052180F8351000680168DA
:1004F00021F0010101600020704700002DE9F84360
:1005000004464FF00009CDF8009063484FF41651AF
:10051000A56D0068B0FBF1F72E6894F85C10082018
:1005200000FA01F131420FD021680A6852070BD559
:100530000A6822F004020A6094F85C108840A860FF
:10054000606D40F00100606594F85C104FF00108A8
:1005500008FA01F0304208D021684969090604D53B
:10056000A860606D40F00200606594F85C100420A3
:100570008840304208D021680968890704D5A860FE
:10058000606D40F00400606594F85C1010208840B5
:10059000304218D021680968090714D5A86020687E
:1005A0000168490304D50068000308D5A16C07E081
:1005B0000168C90503D4016821F008010160216CBC
:1005C00009B12046884794F85C10202088403042CA
:1005D00031D021680968C9062DD5A86094F8350086
:1005E00005282068016806D0490347D50068000344
:1005F0001DD4616C1CE021F0160101602068416986
:1006000021F080014161206C08B9A06C20B1206804
:10061000016821F00801016094F85C103F208840D7
:10062000A86084F8358084F83490216D1FE0E16B78
:1006300009B120468847606D00282BD0606DC00747
:1006400014D0052084F835002068016821F00101EC
:1006500001600098401C0090B84203D820680068F0
:10066000C007F6D184F8358084F83490E16C002915
:1006700010D001B02046BDE8F04308470168C90525
:10068000D5D4016821F01001016084F8358084F828
:100690003490CCE7BDE8F8830C0000202DE9F04150
:1006A000044600F095F906465CB1022084F8350056
:1006B000002584F834502068016821F001010160B0
:1006C0000DE00120BDE8F08100F082F9801B0528D3
:1006D00005D920206065032084F83500F2E7206802
:1006E0000068C007F0D12268116820480140D4E9B1
:1006F00001031843D4E903363343184363691843AD
:10070000A3691843E3691843236A18430843616ADD
:10071000042903D1D4E90B1319430843106020685E
:100720004069666A20F0070130460E43012704281D
:100730000CD1A06A0643E06A40B12046FFF78AFE6A
:1007400020B14020606584F83570BAE720684661C2
:100750002046FFF76BFE94F85C203F2191408160BA
:10076000656584F835700020ACE700003F8010F02C
:100770002DE9F0410446866D90F8340000250128EB
:100780000DD0012084F8340094F835700020012F3A
:1007900007D084F8340002252846BDE8F081022005
:1007A000FBE7022784F8357060652046FFF77CFE82
:1007B00094F85C103F208840B0602068016841F0E8
:1007C00016010160206C20B12068016841F0080129
:1007D00001602068016841F001010160DCE7000070
:1007E0002DE9F84FDFF8BCA10022012503264FF0C8
:1007F0000F090AF1040BAAF1040E00BF0B6805FAF9
:1008000002F42340A34270D10F7907F00307012FB0
:1008100001D0022F16D187684FEA420806FA08FC79
:1008200027EA0C07D1F80CC00CFA08FC4CEA070CBC
:10083000C0F808C04768A7430C79C4F3001494407B
:100840003C4344600C79E443A4070AD0C4684FEAEF
:10085000420C06FA0CF7BC438F6807FA0CF72743E3
:10086000C7600C7904F00304022C12D1D40800EB09
:10087000840CDCF820405707FF0E09FA07F824EA39
:100880000804D1F8108008FA07F848EA0408CCF800
:10089000208004684FEA420C06FA0CF7BC430F793B
:1008A00007F0030707FA0CF7274307604C6814F4B6
:1008B000403F70D03C4C276847F48047276024684D
:1008C00022F0030704F480440094384C07EB040C36
:1008D000DCF8084897074FEA177809FA08F7BC438D
:1008E000334FB84202D1002724E054E0314FB842E0
:1008F00001D101271EE0304FB84201D1022719E093
:100900002E4FB84201D1032714E02D4FB84201D138
:1009100004270FE02B4FB84201D105270AE02A4FE8
:10092000B84201D1062705E0284FB84201D1072778
:1009300000E0082707FA08F72743CCF80878DAF828
:1009400000405746D1F804C09C435FEACC2C00D548
:100950001C433C60DBF800405F46D1F804C09C4378
:100960005FEA8C2C00D51C433C60DEF800407746E3
:10097000D1F804C09C435FEA8C3C00D51C433C602A
:10098000084F083F3C68D1F804C09C435FEACC3C68
:1009900000D51C433C60521C102AFFF42FAFBDE869
:1009A000F88F0000083C014044380240003001400C
:1009B000000002400004024000080240000C024017
:1009C000001002400014024000180240001C0240C7
:1009D00001488068704700000000002002488168DC
:1009E0000278114481607047000000200B4810B568
:1009F000016841F400710160016841F480610160A7
:100A0000016841F480710160032000F06FF80F204D
:100A100000F006F800F024F8002010BD003C024071
:100A200070B50D4D04464FF47A712878B1FBF0F0A3
:100A30000A490968B1FBF0F000F0ECFA48B9102C53
:100A400007D200222146501E00F030F800206C60D2
:100A500070BD012070BD0000000000200C000020CF
:100A60000A4808B5016841F480410160006800F45B
:100A7000804000900548001F016841F080510160EE
:100A8000006800F08050009008BD0000443802402B
:100A9000002809DB00F01F0201219140400980007D
:100AA00000F1E020C0F8001170470000F0B40E4BD8
:100AB0001B680C46C3F30223C3F10705042D00D9BC
:100AC0000425191D072901D2002300E0DB1E0126A1
:100AD00006FA05F1491E214099409E40761E1640B7
:100AE0003143F0BC01F04AB90CED00E0064900F0DA
:100AF000070208684FF6FF03184040EA0220034A45
:100B000010430860704700000CED00E00000FA059B
:100B10002DE9F0470E46050065D0DFF81481D8F8BE
:100B20000000F7B200F00700B04207D288F800706A
:100B3000D8F8000000F00700B04254D128683D4CBE
:100B4000810712D5400703D5206840F4E0502060AB
:100B50002878000703D5206840F4604020602068B2
:100B6000A96820F0F000084320602878C0072DD045
:100B7000304968680839012812D0022813D00328A8
:100B800011D00968890700292DDA216821F00301B5
:100B900001432160FFF71CFF814641F2883A0EE0D5
:100BA00009688903EFE709688901ECE7FFF710FF9F
:100BB000A0EB0901514502D90320BDE8F087206868
:100BC000696800F00C00B0EB810FEFD1D8F800108D
:100BD000404601F00701B14207D90770006800F0F4
:100BE0000700B04201D00120E7E72878400705D58B
:100BF0002068E96820F4E050084320602878000766
:100C000006D52068296920F4604040EAC1002060D0
:100C100000F018F82168084AC1F30311515CC8407C
:100C20000649086006480068FFF7FAFE0020C4E79E
:100C3000003C024008380240CA1D00080C00002099
:100C400004000020154810B5006810F00C0214488C
:100C500013D01449042A0FD0082A0ED10F4C241F98
:100C60002268236802F03F025B0207D52068C0F3C8
:100C70008810A0FB010106E0084610BD2168C1F301
:100C80008811A1FB00010023FFF7EEFA2168C1F3F0
:100C90000141491C4900B0FBF1F010BD0838024089
:100CA0000024F400001BB7002DE9F84F04006ED0BB
:100CB0002078DFF84C93C007A9F104054AD009F168
:100CC00004000168C1F38101012908D00068C0F364
:100CD000810002280AD1D9F80000400206D5286810
:100CE000800337D560680028E1D033E06068B0F554
:100CF000803F10D0B0F5A02F286810D020F48030AD
:100D00002860286820F4802028606068A8B1FFF778
:100D10005FFE06460DE0286840F48030F4E740F4BA
:100D200080202860F7E700BFFFF752FE801B642891
:100D300073D828688003F7D50CE0FFF749FE064614
:100D400005E000BFFFF744FE801B6428F0D8286848
:100D50008003F7D42078DFF8AC8280074FF0000AD8
:100D60003ED5A748001D016811F00C0F08D000689F
:100D7000C0F3810002280BD1D9F80000400207D44B
:100D80002868800716D5E068012800D112E033E119
:100D9000E068B8B10120C8F80000FFF719FE064668
:100DA00005E000BFFFF714FE801B0228C0D82868AA
:100DB0008007F7D52868216920F0F80040EAC100D3
:100DC00028600DE0C8F800A0FFF702FE064604E028
:100DD000FFF7FEFD801B02281FD828688007F7D484
:100DE0002078000722D5864F87486169703771B136
:100DF00001210160FFF7ECFD064604E0FFF7E8FD86
:100E0000801B022809D838688007F7D50EE0C0F8A3
:100E100000A0FFF7DDFD064605E082E0FFF7D8FD04
:100E2000801B02287DD838688007F7D420784007D7
:100E300068D5DFF8CCB100270BF13C0BDBF80000E4
:100E4000C0000BD4DBF8001041F08051CBF800104B
:100E5000DBF80000012700F0805000906B4E3068F6
:100E6000C00510D4306840F480703060FFF7B0FDEA
:100E7000009005E0FFF7ACFD0099401A022850D819
:100E80003068C005F6D55E4EA0686C3601280FD0DC
:100E90000528306810D020F001003060306820F064
:100EA00004003060A068B8B1FFF792FD00900FE039
:100EB000306840F00100F4E740F004003060F7E7EC
:100EC000FFF786FD0099411A41F28830814266D8C9
:100ED00030688007F4D50EE0FFF77AFD009007E058
:100EE000FFF776FD0099411A41F28830814256D8C9
:100EF00030688007F4D42FB1DBF8001021F0805166
:100F0000CBF80010A069C8B33D49091D0968C1F3B9
:100F1000810102294AD00228504607D0C8F8600053
:100F200000E03CE0FFF754FD04463BE04746C8F8CC
:100F30006000FFF74DFD064605E000BFFFF748FDE6
:100F4000801B02282BD828688001F7D4D4E9070138
:100F50000843A16A2E4A490802EB0141626A41EA4C
:100F60008211084394F82C1040EA0161C9F800107E
:100F700001203866FFF72CFD044606E03EE000BF86
:100F8000FFF726FD001B022809D828688001F7D545
:100F900034E000BFFFF71CFD001B022802D903202C
:100FA000BDE8F88F28688001F4D427E00128F7D045
:100FB000D9F80000E26900F4800191421CD1226A54
:100FC00000F03F01914217D147F6C071626A0140BB
:100FD000B1EB821F10D1A26A4FF0FF3300F4403111
:100FE00003EB5202B1EB024F06D194F82C1000F043
:100FF0007060B0EB016F01D00120D1E70020CFE796
:101000000438024000004742800E47420070004012
:101010000000FFFF10B5401EB0F1807F01D301201A
:1010200010BD4FF0E02460610F21601700F0A6FEB4
:101030000020A06107202061002010BD10B590F8AD
:101040003C20012A22D0012280F83C20CA688C680A
:1010500022F4407222434C6822F4806222430C68DE
:1010600022F4006222430C6922F4805222434C692C
:1010700022F400522243C969002322F480420A4329
:1010800001684A6480F83C30002010BD022010BD89
:1010900070B590F83C20012A32D0012480F83C4001
:1010A000022280F83D2003685A689D6822F070068D
:1010B0000A6832435A60134B02689A4214D0B2F164
:1010C000804F11D0104B9A420ED0104B9A420BD049
:1010D0000F4B9A4208D00F4B9A4205D00E4B9A42C2
:1010E00002D00E4B9A4204D1496825F0800319437F
:1010F000916080F83D40002180F83C10084670BDAA
:10110000022070BD000001400004004000080040C3
:10111000000C004000040140004001400018004065
:1011200010B5040003D094F83D0010B107E0012091
:1011300010BD002084F83C00204600F01FF802207B
:1011400084F83D00211D206800F032FC012084F865
:10115000460084F83E0084F83F0084F8400084F89C
:10116000410084F8420084F8430084F8440084F885
:10117000450084F83D00002010BD000038B505464C
:1011800000681449884224D1134900200A6842F0BB
:1011900001020A600968124C01F0010100910F4937
:1011A00021604FF0406161604021C4E902100901F3
:1011B0002161890061618900C4E906108900C4E9E0
:1011C00008102046FFF76AFA08B1FFF782F9AC620F
:1011D000A56338BD0000014044380240406402402D
:1011E0005800002070B5044690F83C000025012806
:1011F00017D0012684F83C60022084F83D00206866
:10120000826822F0770222F47F42826008685028C8
:1012100038D00DDC20284FD005DC90B3102811D138
:101220004AE0022070BD302846D040280AD13BE079
:1012300060282FD070280DD0B0F5805F03D0B0F5B6
:10124000005F12D0012584F83D60002084F83C0046
:10125000284670BDCB68D1E90121206800F096FCDA
:101260002068816841F0770109E0CB68D1E901216C
:10127000206800F08BFC2068816841F48041816027
:10128000E1E719E0CA684968206800F053FD502181
:10129000206806E0CA684968206800F05CFD6021AB
:1012A000206800F07DFCCEE7CA684968206800F03D
:1012B00041FD40212068F4E7226801461046F0E72E
:1012C0007047000010B586B0044614216846FFF749
:1012D00042F80E492068884216D10D480021026864
:1012E00042F010020260006800F0100005904FF418
:1012F000006000900220CDE901010120CDE903103A
:1013000069460448FFF76CFA06B010BD00000140C2
:10131000303802400010024070B5044690F83C009E
:1013200000260D4601280FD0012084F83C006AB148
:10133000042A1DD0082A2FD00C2A3FD001260020D5
:1013400084F83C00304670BD022070BD206800F07B
:101350002FFC2068816941F0080181612068816962
:1013600021F004018161206881692A69114311E03B
:10137000206800F04DFC2068816941F400618161C2
:101380002068816921F480618161206881692A690E
:1013900041EA02218161D2E7206800F06FFC2068F9
:1013A000C16941F00801C1612068C16921F00401EF
:1013B000C1612068C1692A69114311E0206800F009
:1013C00091FC2068C16941F40061C1612068C16974
:1013D00021F48061C1612068C1692A6941EA022162
:1013E000C161ACE710B5040003D094F83D0010B122
:1013F00007E0012010BD002084F83C00204600F0EA
:101400001EF8022084F83D00211D206800F0D0FA6B
:10141000012084F8460084F83E0084F83F0084F8F8
:10142000400084F8410084F8420084F8430084F8C6
:10143000440084F8450084F83D00002010BD70474A
:101440000421014800F0E4B81000002070470000BB
:101450002DE9F04117460D0004464FF000060CD070
:10146000042D11D0082D16D094F84100022819D06F
:1014700094F84100012818D07CE094F83E0002283E
:1014800010D094F83E00F5E794F83F00022809D008
:1014900094F83F00EEE794F84000022802D094F858
:1014A0004000E7E70220BDE8F081002F62D0002B6A
:1014B00060D04D494D4ADFF838C102204DB1042DAE
:1014C00018D0082D27D084F841000C2D44D00126D7
:1014D00087E084F83E00606AC163606A394602644E
:1014E000606AC0F84CC02268606A3432FFF740F985
:1014F00088BB21E084F83F00A06AC163A06A394636
:101500000264A06AC0F84CC02268A06A3832FFF7B3
:101510002FF900BB15E084F84000E06AC163E06A7F
:1015200039460264E06AC0F84CC02268E06A3C3286
:10153000FFF71EF978B909E02068C16841F400712D
:101540001EE02068C16841F4806119E02068C1682C
:1015500041F4006114E00DE0206BC163206B39465B
:101560000264206BC0F84CC02268206B4032FFF749
:10157000FFF808B1012096E72068C16841F4805166
:10158000C16001222946206800F07EFA19492068CE
:10159000194A884201D0904203D1436C43F400437E
:1015A00043642068884213D0B0F1804F10D01349B3
:1015B00088420DD0124988420AD01249884207D089
:1015C000904205D01049884202D01049884204D187
:1015D000816801F00701062903D0016841F001018B
:1015E000016030465FE70000A31A0008011B0008F5
:1015F000391B0008000001400004014000040040C5
:1016000000080040000C004000400140001800406D
:1016100070B50D0004464FF0000607D0042D0CD025
:10162000082D11D00C2D16D0012648E02068C16885
:1016300021F40071C160606A13E02068C16821F480
:101640008061C160A06A0CE02068C16821F400617B
:10165000C160E06A05E02068C16821F48051C16082
:10166000206BFEF738FF00222946206800F00CFAB4
:10167000184B41F2111120688A10984202D0164B83
:10168000984209D1036A0B4206D1036A134203D17F
:10169000436C23F4004343642068036A0B4206D181
:1016A000016A114203D1016821F0010101600120AA
:1016B0003DB1042D08D0082D09D084F841003046F2
:1016C00070BD84F83E00FAE784F83F00F7E784F83D
:1016D0004000F4E70000014000040140FEE7000084
:1016E000094808B5016841F48001016000680022E2
:1016F00000F48000009011463A20FFF7D7F9BDE8CA
:1017000008403A20FFF7C4B9303802400D4808B508
:10171000016841F001010160016801F001010091DF
:10172000016841F080010160016801F080010091D1
:10173000016841F010010160006800F010000090A5
:1017400008BD00003038024010B596B000240F9458
:1017500010941194129413941C2108A81494FEF769
:10176000FAFD20216846FEF7F6FD27482549C0E925
:101770000014D121C0E90241046144618461FFF792
:10178000CFFC08B1FEF7A5FE4FF480500F900FA9D3
:101790001D48FFF727FD08B1FEF79BFE1A48FFF72B
:1017A00021FE08B1FEF795FE139413A91648149470
:1017B000FFF76EFC08B1FEF78CFE6020CDE908044F
:1017C0000A940B940C940D94042208A90E480E94CC
:1017D000FFF7A2FD08B1FEF77CFE00944FF4005025
:1017E000CDE90440029401940394694606480794A5
:1017F000FFF724FC08B1FEF76CFE0348FFF762FD1B
:1018000016B010BD0000014010000020FEE7FEE70A
:1018100070470000F8B5054600240B4E0BE0B18977
:10182000ADF80010B17B8DF80210E0B2009900F025
:1018300017F8641CA4B2AC42F1D300F053F8BDE831
:10184000F84000F003B80000DA1D0008A823024A9F
:1018500004210248FFF7FCBDB80000201000002062
:1018600030B506283BD81E4C002300EB4000C1F3E6
:101870000725012204EB4014C3F1070002FA00F02F
:10188000054201D08B2000E0452044F823005B1C7A
:10189000DBB2082BF0D308205FFA81F3C0F10F050B
:1018A00002FA05F52B4201D08B2500E0452544F8CE
:1018B0002050401CC0B21028F0D31020C1F30741C3
:1018C000C0F1170302FA03F3194201D08B2300E0A1
:1018D000452344F82030401CC0B21828F0D330BD56
:1018E000B800002000200649024600BF01EB80033B
:1018F000401CC0B2C3F840221828F7D3704700003C
:10190000B80000207047FFF769B8000030B593B009
:1019100030216846FEF71FFD14210CA8FEF71BFDC1
:101920001D480025016841F080510160006800F009
:10193000805011901948016841F4804101600068AD
:10194000022400F4804011900120009000040190D6
:101950008001CDE9064006200890A820CDE90904C1
:1019600004200B906846FFF79FF908B172B6FEE7B6
:101970000CA90F2081E831004FF4A0500F904FF4D4
:101980008050109005210CA8FFF7C2F8002801D064
:1019900072B6FEE713B030BD403802400070004020
:1019A0000248016841F470010160704788ED00E071
:1019B000F0B50268294C2A4D2A4E2B4F2B4B4FF085
:1019C000804CA04209D0604507D0A84205D0B04263
:1019D00003D0B84201D0984204D122F0700E4A6878
:1019E00042EA0E02A0421BD0604519D0A84217D08F
:1019F000B04215D0B84213D0984211D01C4DA84225
:101A00000ED01C4DA8420BD01B4DA84208D01B4D38
:101A1000A84205D01A4DA84202D01A4DA84203D1BF
:101A200022F44075CA682A434D6922F080022A4395
:101A300002608A68C2620A688262A04201D098424B
:101A400001D109690163012141610169C90703D01D
:101A5000016921F001010161F0BD000000000140B9
:101A60000004004000080040000C00400004014059
:101A7000004001400044014000480140001800407F
:101A8000001C00400020004010B501F01F030121A0
:101A9000046A99408C430462016A9A4011430162CE
:101AA00010BD10B5846B0121626A824205D1217795
:101AB000C069F8B984F83E101CE0A26A824206D1DF
:101AC00002222277C069A8B984F83F1012E0E26AC6
:101AD000824206D104222277C06958B984F84010A6
:101AE00008E0226B824205D108222277C06908B93A
:101AF00084F841102046FFF7A3FC0020207710BD9A
:101B000010B5846B616A814201D101200DE0A16AA8
:101B1000814201D1022008E0E16A814201D1042022
:101B200003E0216B814201D1082020772046FFF796
:101B30008DFC0020207710BD10B5846B0121626AF6
:101B4000824203D1217784F83E1019E0A26A8242D2
:101B500004D10220207784F83F1011E0E26A82422B
:101B600004D10420207784F8401009E0226B8242DF
:101B700004D10820207784F8411001E084F83D105A
:101B80002046FFF79DFB0020207710BD10B584682C
:101B900042EA032224F47F440A432243826010BDB8
:101BA000826822F070020A4342F0070181607047A8
:101BB000F0B5036A026A22F0010202624268846997
:101BC000124E24F073050C682C4323F002058B6839
:101BD0002B430D4DA84201D0B04205D123F0080798
:101BE000CB683B4323F00403A84201D0B04205D1A7
:101BF0004D6922F4407215438A692A434260846128
:101C0000496841630362F0BD0000014000040140E7
:101C1000F0B5026A036A23F0100303624368846923
:101C20000D6824F4E64444EA05248D6822F020027D
:101C300042EA05120F4D104EA84201D0B04206D123
:101C4000CF6822F0800242EA071222F04002A84246
:101C500001D0B04207D14D6923F4406343EA8503C4
:101C60008D6943EA85034360846149688163026248
:101C7000F0BD00000000014000040140F0B5026A20
:101C8000036A23F4807303624368C46922F4007218
:101C900024F073050C68124E2C438D6842EA05222D
:101CA0000E4DA84201D0B04206D1CF6822F40062A6
:101CB00042EA072222F48062A84201D0B04207D152
:101CC0004D6923F4405343EA05138D6943EA051334
:101CD0004360C4614968C1630262F0BD0000014015
:101CE0000004014030B5046A026A22F480520262A4
:101CF0004268C3690D6823F4E64343EA05238D680F
:101D000024F4005444EA0534084DA84202D0084D9A
:101D1000A84204D14D6922F4804242EA8512426011
:101D2000C36149680164046230BD000000000140E5
:101D30000004014010B5036A046A24F0010404623F
:101D4000846924F0F00444EA021423F00A020A43EE
:101D50008461026210BD10B5036A046A24F01004A5
:101D60000462846923F0A00324F4704444EA02323C
:101D700043EA01118261016210BDFEE70907090E05
:101D8000002804DB00F1E02080F80014704700F028
:101D90000F0000F1E02080F8141D7047FEF726FECA
:101DA000FFF7B4FDFFF7B2FCFFF79AFCFFF7CCFC9E
:101DB0000620FFF72FFDFBE74FF04070E1EE100A21
:101DC0007047000610160006101600000000000004
:101DD00000000102030406070809FF000000FF00DD
:101DE0000000FFFFFFFF0000000000000C1E0008C5
:101DF0000000002010000000C40100081C1E0008A4
:101E000010000020A8090000E00100080100000007
:0C1E100010000000000000000024F4009E
:040000050800018965
:00000001FF
